{
  "_format": "hh-sol-artifact-1",
  "contractName": "ERC721RING",
  "sourceName": "contracts/ERC721RING.sol",
  "abi": [
    {
      "inputs": [],
      "stateMutability": "nonpayable",
      "type": "constructor"
    },
    {
      "anonymous": false,
      "inputs": [
        {
          "indexed": true,
          "internalType": "address",
          "name": "owner",
          "type": "address"
        },
        {
          "indexed": true,
          "internalType": "address",
          "name": "approved",
          "type": "address"
        },
        {
          "indexed": true,
          "internalType": "uint256",
          "name": "tokenId",
          "type": "uint256"
        }
      ],
      "name": "Approval",
      "type": "event"
    },
    {
      "anonymous": false,
      "inputs": [
        {
          "indexed": true,
          "internalType": "address",
          "name": "owner",
          "type": "address"
        },
        {
          "indexed": true,
          "internalType": "address",
          "name": "operator",
          "type": "address"
        },
        {
          "indexed": false,
          "internalType": "bool",
          "name": "approved",
          "type": "bool"
        }
      ],
      "name": "ApprovalForAll",
      "type": "event"
    },
    {
      "anonymous": false,
      "inputs": [
        {
          "indexed": true,
          "internalType": "address",
          "name": "previousOwner",
          "type": "address"
        },
        {
          "indexed": true,
          "internalType": "address",
          "name": "newOwner",
          "type": "address"
        }
      ],
      "name": "OwnershipTransferred",
      "type": "event"
    },
    {
      "anonymous": false,
      "inputs": [
        {
          "indexed": true,
          "internalType": "address",
          "name": "from",
          "type": "address"
        },
        {
          "indexed": true,
          "internalType": "address",
          "name": "to",
          "type": "address"
        },
        {
          "indexed": true,
          "internalType": "uint256",
          "name": "tokenId",
          "type": "uint256"
        }
      ],
      "name": "Transfer",
      "type": "event"
    },
    {
      "inputs": [
        {
          "internalType": "address",
          "name": "to",
          "type": "address"
        },
        {
          "internalType": "uint256",
          "name": "tokenId",
          "type": "uint256"
        }
      ],
      "name": "approve",
      "outputs": [],
      "stateMutability": "nonpayable",
      "type": "function"
    },
    {
      "inputs": [
        {
          "internalType": "address",
          "name": "owner",
          "type": "address"
        }
      ],
      "name": "balanceOf",
      "outputs": [
        {
          "internalType": "uint256",
          "name": "",
          "type": "uint256"
        }
      ],
      "stateMutability": "view",
      "type": "function"
    },
    {
      "inputs": [
        {
          "internalType": "uint256",
          "name": "tokenId",
          "type": "uint256"
        }
      ],
      "name": "getApproved",
      "outputs": [
        {
          "internalType": "address",
          "name": "",
          "type": "address"
        }
      ],
      "stateMutability": "view",
      "type": "function"
    },
    {
      "inputs": [
        {
          "internalType": "address",
          "name": "owner",
          "type": "address"
        },
        {
          "internalType": "address",
          "name": "operator",
          "type": "address"
        }
      ],
      "name": "isApprovedForAll",
      "outputs": [
        {
          "internalType": "bool",
          "name": "",
          "type": "bool"
        }
      ],
      "stateMutability": "view",
      "type": "function"
    },
    {
      "inputs": [],
      "name": "name",
      "outputs": [
        {
          "internalType": "string",
          "name": "",
          "type": "string"
        }
      ],
      "stateMutability": "view",
      "type": "function"
    },
    {
      "inputs": [],
      "name": "owner",
      "outputs": [
        {
          "internalType": "address",
          "name": "",
          "type": "address"
        }
      ],
      "stateMutability": "view",
      "type": "function"
    },
    {
      "inputs": [
        {
          "internalType": "uint256",
          "name": "tokenId",
          "type": "uint256"
        }
      ],
      "name": "ownerOf",
      "outputs": [
        {
          "internalType": "address",
          "name": "",
          "type": "address"
        }
      ],
      "stateMutability": "view",
      "type": "function"
    },
    {
      "inputs": [],
      "name": "renounceOwnership",
      "outputs": [],
      "stateMutability": "nonpayable",
      "type": "function"
    },
    {
      "inputs": [
        {
          "internalType": "address",
          "name": "toA",
          "type": "address"
        },
        {
          "internalType": "address",
          "name": "toB",
          "type": "address"
        },
        {
          "internalType": "bytes",
          "name": "signatureA",
          "type": "bytes"
        },
        {
          "internalType": "bytes",
          "name": "signatureB",
          "type": "bytes"
        }
      ],
      "name": "safeMintRingSync",
      "outputs": [],
      "stateMutability": "nonpayable",
      "type": "function"
    },
    {
      "inputs": [
        {
          "internalType": "address",
          "name": "from",
          "type": "address"
        },
        {
          "internalType": "address",
          "name": "to",
          "type": "address"
        },
        {
          "internalType": "uint256",
          "name": "tokenId",
          "type": "uint256"
        }
      ],
      "name": "safeTransferFrom",
      "outputs": [],
      "stateMutability": "nonpayable",
      "type": "function"
    },
    {
      "inputs": [
        {
          "internalType": "address",
          "name": "from",
          "type": "address"
        },
        {
          "internalType": "address",
          "name": "to",
          "type": "address"
        },
        {
          "internalType": "uint256",
          "name": "tokenId",
          "type": "uint256"
        },
        {
          "internalType": "bytes",
          "name": "data",
          "type": "bytes"
        }
      ],
      "name": "safeTransferFrom",
      "outputs": [],
      "stateMutability": "nonpayable",
      "type": "function"
    },
    {
      "inputs": [
        {
          "internalType": "address",
          "name": "operator",
          "type": "address"
        },
        {
          "internalType": "bool",
          "name": "approved",
          "type": "bool"
        }
      ],
      "name": "setApprovalForAll",
      "outputs": [],
      "stateMutability": "nonpayable",
      "type": "function"
    },
    {
      "inputs": [
        {
          "internalType": "bytes4",
          "name": "interfaceId",
          "type": "bytes4"
        }
      ],
      "name": "supportsInterface",
      "outputs": [
        {
          "internalType": "bool",
          "name": "",
          "type": "bool"
        }
      ],
      "stateMutability": "view",
      "type": "function"
    },
    {
      "inputs": [],
      "name": "symbol",
      "outputs": [
        {
          "internalType": "string",
          "name": "",
          "type": "string"
        }
      ],
      "stateMutability": "view",
      "type": "function"
    },
    {
      "inputs": [
        {
          "internalType": "uint256",
          "name": "index",
          "type": "uint256"
        }
      ],
      "name": "tokenByIndex",
      "outputs": [
        {
          "internalType": "uint256",
          "name": "",
          "type": "uint256"
        }
      ],
      "stateMutability": "view",
      "type": "function"
    },
    {
      "inputs": [
        {
          "internalType": "address",
          "name": "owner",
          "type": "address"
        },
        {
          "internalType": "uint256",
          "name": "index",
          "type": "uint256"
        }
      ],
      "name": "tokenOfOwnerByIndex",
      "outputs": [
        {
          "internalType": "uint256",
          "name": "",
          "type": "uint256"
        }
      ],
      "stateMutability": "view",
      "type": "function"
    },
    {
      "inputs": [
        {
          "internalType": "uint256",
          "name": "tokenId",
          "type": "uint256"
        }
      ],
      "name": "tokenURI",
      "outputs": [
        {
          "internalType": "string",
          "name": "",
          "type": "string"
        }
      ],
      "stateMutability": "view",
      "type": "function"
    },
    {
      "inputs": [],
      "name": "totalSupply",
      "outputs": [
        {
          "internalType": "uint256",
          "name": "",
          "type": "uint256"
        }
      ],
      "stateMutability": "view",
      "type": "function"
    },
    {
      "inputs": [
        {
          "internalType": "address",
          "name": "from",
          "type": "address"
        },
        {
          "internalType": "address",
          "name": "to",
          "type": "address"
        },
        {
          "internalType": "uint256",
          "name": "tokenId",
          "type": "uint256"
        }
      ],
      "name": "transferFrom",
      "outputs": [],
      "stateMutability": "nonpayable",
      "type": "function"
    },
    {
      "inputs": [
        {
          "internalType": "address",
          "name": "newOwner",
          "type": "address"
        }
      ],
      "name": "transferOwnership",
      "outputs": [],
      "stateMutability": "nonpayable",
      "type": "function"
    }
  ],
  "bytecode": "0x60806040523480156200001157600080fd5b506040518060400160405280600781526020017f4d79546f6b656e000000000000000000000000000000000000000000000000008152506040518060400160405280600381526020017f4d544b0000000000000000000000000000000000000000000000000000000000815250816000908051906020019062000096929190620001a6565b508060019080519060200190620000af929190620001a6565b505050620000d2620000c6620000d860201b60201c565b620000e060201b60201c565b620002bb565b600033905090565b6000600a60009054906101000a900473ffffffffffffffffffffffffffffffffffffffff16905081600a60006101000a81548173ffffffffffffffffffffffffffffffffffffffff021916908373ffffffffffffffffffffffffffffffffffffffff1602179055508173ffffffffffffffffffffffffffffffffffffffff168173ffffffffffffffffffffffffffffffffffffffff167f8be0079c531659141344cd1fd0a4f28419497f9722a3daafe3b4186f6b6457e060405160405180910390a35050565b828054620001b49062000285565b90600052602060002090601f016020900481019282620001d8576000855562000224565b82601f10620001f357805160ff191683800117855562000224565b8280016001018555821562000224579182015b828111156200022357825182559160200191906001019062000206565b5b50905062000233919062000237565b5090565b5b808211156200025257600081600090555060010162000238565b5090565b7f4e487b7100000000000000000000000000000000000000000000000000000000600052602260045260246000fd5b600060028204905060018216806200029e57607f821691505b60208210811415620002b557620002b462000256565b5b50919050565b613bdf80620002cb6000396000f3fe608060405234801561001057600080fd5b506004361061012c5760003560e01c806370a08231116100ad578063b88d4fde11610071578063b88d4fde14610343578063c87b56dd1461035f578063e985e9c51461038f578063eb72b79c146103bf578063f2fde38b146103db5761012c565b806370a08231146102b1578063715018a6146102e15780638da5cb5b146102eb57806395d89b4114610309578063a22cb465146103275761012c565b806323b872dd116100f457806323b872dd146101e95780632f745c591461020557806342842e0e146102355780634f6ccce7146102515780636352211e146102815761012c565b806301ffc9a71461013157806306fdde0314610161578063081812fc1461017f578063095ea7b3146101af57806318160ddd146101cb575b600080fd5b61014b6004803603810190610146919061256c565b6103f7565b60405161015891906125b4565b60405180910390f35b610169610409565b6040516101769190612668565b60405180910390f35b610199600480360381019061019491906126c0565b61049b565b6040516101a6919061272e565b60405180910390f35b6101c960048036038101906101c49190612775565b6104e1565b005b6101d36105f9565b6040516101e091906127c4565b60405180910390f35b61020360048036038101906101fe91906127df565b610606565b005b61021f600480360381019061021a9190612775565b610666565b60405161022c91906127c4565b60405180910390f35b61024f600480360381019061024a91906127df565b61070b565b005b61026b600480360381019061026691906126c0565b61072b565b60405161027891906127c4565b60405180910390f35b61029b600480360381019061029691906126c0565b61079c565b6040516102a8919061272e565b60405180910390f35b6102cb60048036038101906102c69190612832565b610823565b6040516102d891906127c4565b60405180910390f35b6102e96108db565b005b6102f36108ef565b604051610300919061272e565b60405180910390f35b610311610919565b60405161031e9190612668565b60405180910390f35b610341600480360381019061033c919061288b565b6109ab565b005b61035d60048036038101906103589190612a00565b6109c1565b005b610379600480360381019061037491906126c0565b610a23565b6040516103869190612668565b60405180910390f35b6103a960048036038101906103a49190612a83565b610a83565b6040516103b691906125b4565b60405180910390f35b6103d960048036038101906103d49190612ac3565b610b17565b005b6103f560048036038101906103f09190612832565b610cc6565b005b600061040282610d4a565b9050919050565b60606000805461041890612b91565b80601f016020809104026020016040519081016040528092919081815260200182805461044490612b91565b80156104915780601f1061046657610100808354040283529160200191610491565b820191906000526020600020905b81548152906001019060200180831161047457829003601f168201915b5050505050905090565b60006104a682610dc4565b6004600083815260200190815260200160002060009054906101000a900473ffffffffffffffffffffffffffffffffffffffff169050919050565b60006104ec8261079c565b90508073ffffffffffffffffffffffffffffffffffffffff168373ffffffffffffffffffffffffffffffffffffffff16141561055d576040517f08c379a000000000000000000000000000000000000000000000000000000000815260040161055490612c35565b60405180910390fd5b8073ffffffffffffffffffffffffffffffffffffffff1661057c610e0f565b73ffffffffffffffffffffffffffffffffffffffff1614806105ab57506105aa816105a5610e0f565b610a83565b5b6105ea576040517f08c379a00000000000000000000000000000000000000000000000000000000081526004016105e190612cc7565b60405180910390fd5b6105f48383610e17565b505050565b6000600880549050905090565b610617610611610e0f565b82610ed0565b610656576040517f08c379a000000000000000000000000000000000000000000000000000000000815260040161064d90612d59565b60405180910390fd5b610661838383610f65565b505050565b600061067183610823565b82106106b2576040517f08c379a00000000000000000000000000000000000000000000000000000000081526004016106a990612deb565b60405180910390fd5b600660008473ffffffffffffffffffffffffffffffffffffffff1673ffffffffffffffffffffffffffffffffffffffff168152602001908152602001600020600083815260200190815260200160002054905092915050565b610726838383604051806020016040528060008152506109c1565b505050565b60006107356105f9565b8210610776576040517f08c379a000000000000000000000000000000000000000000000000000000000815260040161076d90612e7d565b60405180910390fd5b6008828154811061078a57610789612e9d565b5b90600052602060002001549050919050565b6000806107a88361125f565b9050600073ffffffffffffffffffffffffffffffffffffffff168173ffffffffffffffffffffffffffffffffffffffff16141561081a576040517f08c379a000000000000000000000000000000000000000000000000000000000815260040161081190612f18565b60405180910390fd5b80915050919050565b60008073ffffffffffffffffffffffffffffffffffffffff168273ffffffffffffffffffffffffffffffffffffffff161415610894576040517f08c379a000000000000000000000000000000000000000000000000000000000815260040161088b90612faa565b60405180910390fd5b600360008373ffffffffffffffffffffffffffffffffffffffff1673ffffffffffffffffffffffffffffffffffffffff168152602001908152602001600020549050919050565b6108e361129c565b6108ed600061131a565b565b6000600a60009054906101000a900473ffffffffffffffffffffffffffffffffffffffff16905090565b60606001805461092890612b91565b80601f016020809104026020016040519081016040528092919081815260200182805461095490612b91565b80156109a15780601f10610976576101008083540402835291602001916109a1565b820191906000526020600020905b81548152906001019060200180831161098457829003601f168201915b5050505050905090565b6109bd6109b6610e0f565b83836113e0565b5050565b6109d26109cc610e0f565b83610ed0565b610a11576040517f08c379a0000000000000000000000000000000000000000000000000000000008152600401610a0890612d59565b60405180910390fd5b610a1d8484848461154d565b50505050565b6060610a2e82610dc4565b6000610a386115a9565b90506000815111610a585760405180602001604052806000815250610a7b565b8083604051602001610a6b929190613027565b6040516020818303038152906040525b915050919050565b6000600560008473ffffffffffffffffffffffffffffffffffffffff1673ffffffffffffffffffffffffffffffffffffffff16815260200190815260200160002060008373ffffffffffffffffffffffffffffffffffffffff1673ffffffffffffffffffffffffffffffffffffffff16815260200190815260200160002060009054906101000a900460ff16905092915050565b6000610b2285610823565b14610b62576040517f08c379a0000000000000000000000000000000000000000000000000000000008152600401610b59906130c1565b60405180910390fd5b6000610b6d84610823565b14610bad576040517f08c379a0000000000000000000000000000000000000000000000000000000008152600401610ba490613153565b60405180910390fd5b610bb88383866115e6565b610bf7576040517f08c379a0000000000000000000000000000000000000000000000000000000008152600401610bee906131bf565b60405180910390fd5b610c028482856115e6565b610c41576040517f08c379a0000000000000000000000000000000000000000000000000000000008152600401610c389061322b565b60405180910390fd5b6000610c4d600b611660565b9050610c59600b61166e565b610c63600b61166e565b42600c60008381526020019081526020016000208190555042600c6000600184610c8d919061327a565b815260200190815260200160002081905550610ca98582611684565b610cbf84600183610cba919061327a565b611684565b5050505050565b610cce61129c565b600073ffffffffffffffffffffffffffffffffffffffff168173ffffffffffffffffffffffffffffffffffffffff161415610d3e576040517f08c379a0000000000000000000000000000000000000000000000000000000008152600401610d3590613342565b60405180910390fd5b610d478161131a565b50565b60007f780e9d63000000000000000000000000000000000000000000000000000000007bffffffffffffffffffffffffffffffffffffffffffffffffffffffff1916827bffffffffffffffffffffffffffffffffffffffffffffffffffffffff19161480610dbd5750610dbc826116a2565b5b9050919050565b610dcd81611784565b610e0c576040517f08c379a0000000000000000000000000000000000000000000000000000000008152600401610e0390612f18565b60405180910390fd5b50565b600033905090565b816004600083815260200190815260200160002060006101000a81548173ffffffffffffffffffffffffffffffffffffffff021916908373ffffffffffffffffffffffffffffffffffffffff160217905550808273ffffffffffffffffffffffffffffffffffffffff16610e8a8361079c565b73ffffffffffffffffffffffffffffffffffffffff167f8c5be1e5ebec7d5bd14f71427d1e84f3dd0314c0f7b2291e5b200ac8c7c3b92560405160405180910390a45050565b600080610edc8361079c565b90508073ffffffffffffffffffffffffffffffffffffffff168473ffffffffffffffffffffffffffffffffffffffff161480610f1e5750610f1d8185610a83565b5b80610f5c57508373ffffffffffffffffffffffffffffffffffffffff16610f448461049b565b73ffffffffffffffffffffffffffffffffffffffff16145b91505092915050565b8273ffffffffffffffffffffffffffffffffffffffff16610f858261079c565b73ffffffffffffffffffffffffffffffffffffffff1614610fdb576040517f08c379a0000000000000000000000000000000000000000000000000000000008152600401610fd2906133d4565b60405180910390fd5b600073ffffffffffffffffffffffffffffffffffffffff168273ffffffffffffffffffffffffffffffffffffffff16141561104b576040517f08c379a000000000000000000000000000000000000000000000000000000000815260040161104290613466565b60405180910390fd5b61105883838360016117c5565b8273ffffffffffffffffffffffffffffffffffffffff166110788261079c565b73ffffffffffffffffffffffffffffffffffffffff16146110ce576040517f08c379a00000000000000000000000000000000000000000000000000000000081526004016110c5906133d4565b60405180910390fd5b6004600082815260200190815260200160002060006101000a81549073ffffffffffffffffffffffffffffffffffffffff02191690556001600360008573ffffffffffffffffffffffffffffffffffffffff1673ffffffffffffffffffffffffffffffffffffffff168152602001908152602001600020600082825403925050819055506001600360008473ffffffffffffffffffffffffffffffffffffffff1673ffffffffffffffffffffffffffffffffffffffff16815260200190815260200160002060008282540192505081905550816002600083815260200190815260200160002060006101000a81548173ffffffffffffffffffffffffffffffffffffffff021916908373ffffffffffffffffffffffffffffffffffffffff160217905550808273ffffffffffffffffffffffffffffffffffffffff168473ffffffffffffffffffffffffffffffffffffffff167fddf252ad1be2c89b69c2b068fc378daa952ba7f163c4a11628f55a4df523b3ef60405160405180910390a461125a83838360016117d7565b505050565b60006002600083815260200190815260200160002060009054906101000a900473ffffffffffffffffffffffffffffffffffffffff169050919050565b6112a4610e0f565b73ffffffffffffffffffffffffffffffffffffffff166112c26108ef565b73ffffffffffffffffffffffffffffffffffffffff1614611318576040517f08c379a000000000000000000000000000000000000000000000000000000000815260040161130f906134d2565b60405180910390fd5b565b6000600a60009054906101000a900473ffffffffffffffffffffffffffffffffffffffff16905081600a60006101000a81548173ffffffffffffffffffffffffffffffffffffffff021916908373ffffffffffffffffffffffffffffffffffffffff1602179055508173ffffffffffffffffffffffffffffffffffffffff168173ffffffffffffffffffffffffffffffffffffffff167f8be0079c531659141344cd1fd0a4f28419497f9722a3daafe3b4186f6b6457e060405160405180910390a35050565b8173ffffffffffffffffffffffffffffffffffffffff168373ffffffffffffffffffffffffffffffffffffffff16141561144f576040517f08c379a00000000000000000000000000000000000000000000000000000000081526004016114469061353e565b60405180910390fd5b80600560008573ffffffffffffffffffffffffffffffffffffffff1673ffffffffffffffffffffffffffffffffffffffff16815260200190815260200160002060008473ffffffffffffffffffffffffffffffffffffffff1673ffffffffffffffffffffffffffffffffffffffff16815260200190815260200160002060006101000a81548160ff0219169083151502179055508173ffffffffffffffffffffffffffffffffffffffff168373ffffffffffffffffffffffffffffffffffffffff167f17307eab39ab6107e8899845ad3d59bd9653f200f220920489ca2b5937696c318360405161154091906125b4565b60405180910390a3505050565b611558848484610f65565b611564848484846117dd565b6115a3576040517f08c379a000000000000000000000000000000000000000000000000000000000815260040161159a906135d0565b60405180910390fd5b50505050565b60606040518060400160405280600781526020017f697066733a2f2f00000000000000000000000000000000000000000000000000815250905090565b60008173ffffffffffffffffffffffffffffffffffffffff1661164084611632876040516020016116179190613638565b60405160208183030381529060405280519060200120611974565b6119a490919063ffffffff16565b73ffffffffffffffffffffffffffffffffffffffff161490509392505050565b600081600001549050919050565b6001816000016000828254019250508190555050565b61169e8282604051806020016040528060008152506119cb565b5050565b60007f80ac58cd000000000000000000000000000000000000000000000000000000007bffffffffffffffffffffffffffffffffffffffffffffffffffffffff1916827bffffffffffffffffffffffffffffffffffffffffffffffffffffffff1916148061176d57507f5b5e139f000000000000000000000000000000000000000000000000000000007bffffffffffffffffffffffffffffffffffffffffffffffffffffffff1916827bffffffffffffffffffffffffffffffffffffffffffffffffffffffff1916145b8061177d575061177c82611a26565b5b9050919050565b60008073ffffffffffffffffffffffffffffffffffffffff166117a68361125f565b73ffffffffffffffffffffffffffffffffffffffff1614159050919050565b6117d184848484611a90565b50505050565b50505050565b60006117fe8473ffffffffffffffffffffffffffffffffffffffff16611bf0565b15611967578373ffffffffffffffffffffffffffffffffffffffff1663150b7a02611827610e0f565b8786866040518563ffffffff1660e01b815260040161184994939291906136a8565b602060405180830381600087803b15801561186357600080fd5b505af192505050801561189457506040513d601f19601f820116820180604052508101906118919190613709565b60015b611917573d80600081146118c4576040519150601f19603f3d011682016040523d82523d6000602084013e6118c9565b606091505b5060008151141561190f576040517f08c379a0000000000000000000000000000000000000000000000000000000008152600401611906906135d0565b60405180910390fd5b805181602001fd5b63150b7a0260e01b7bffffffffffffffffffffffffffffffffffffffffffffffffffffffff1916817bffffffffffffffffffffffffffffffffffffffffffffffffffffffff19161491505061196c565b600190505b949350505050565b60008160405160200161198791906137ad565b604051602081830303815290604052805190602001209050919050565b60008060006119b38585611c13565b915091506119c081611c65565b819250505092915050565b6119d58383611dd3565b6119e260008484846117dd565b611a21576040517f08c379a0000000000000000000000000000000000000000000000000000000008152600401611a18906135d0565b60405180910390fd5b505050565b60007f01ffc9a7000000000000000000000000000000000000000000000000000000007bffffffffffffffffffffffffffffffffffffffffffffffffffffffff1916827bffffffffffffffffffffffffffffffffffffffffffffffffffffffff1916149050919050565b611a9c84848484611ff1565b6001811115611ae0576040517f08c379a0000000000000000000000000000000000000000000000000000000008152600401611ad790613845565b60405180910390fd5b6000829050600073ffffffffffffffffffffffffffffffffffffffff168573ffffffffffffffffffffffffffffffffffffffff161415611b2857611b2381612117565b611b67565b8373ffffffffffffffffffffffffffffffffffffffff168573ffffffffffffffffffffffffffffffffffffffff1614611b6657611b658582612160565b5b5b600073ffffffffffffffffffffffffffffffffffffffff168473ffffffffffffffffffffffffffffffffffffffff161415611baa57611ba5816122cd565b611be9565b8473ffffffffffffffffffffffffffffffffffffffff168473ffffffffffffffffffffffffffffffffffffffff1614611be857611be7848261239e565b5b5b5050505050565b6000808273ffffffffffffffffffffffffffffffffffffffff163b119050919050565b600080604183511415611c555760008060006020860151925060408601519150606086015160001a9050611c498782858561241d565b94509450505050611c5e565b60006002915091505b9250929050565b60006004811115611c7957611c78613865565b5b816004811115611c8c57611c8b613865565b5b1415611c9757611dd0565b60016004811115611cab57611caa613865565b5b816004811115611cbe57611cbd613865565b5b1415611cff576040517f08c379a0000000000000000000000000000000000000000000000000000000008152600401611cf6906138e0565b60405180910390fd5b60026004811115611d1357611d12613865565b5b816004811115611d2657611d25613865565b5b1415611d67576040517f08c379a0000000000000000000000000000000000000000000000000000000008152600401611d5e9061394c565b60405180910390fd5b60036004811115611d7b57611d7a613865565b5b816004811115611d8e57611d8d613865565b5b1415611dcf576040517f08c379a0000000000000000000000000000000000000000000000000000000008152600401611dc6906139de565b60405180910390fd5b5b50565b600073ffffffffffffffffffffffffffffffffffffffff168273ffffffffffffffffffffffffffffffffffffffff161415611e43576040517f08c379a0000000000000000000000000000000000000000000000000000000008152600401611e3a90613a4a565b60405180910390fd5b611e4c81611784565b15611e8c576040517f08c379a0000000000000000000000000000000000000000000000000000000008152600401611e8390613ab6565b60405180910390fd5b611e9a6000838360016117c5565b611ea381611784565b15611ee3576040517f08c379a0000000000000000000000000000000000000000000000000000000008152600401611eda90613ab6565b60405180910390fd5b6001600360008473ffffffffffffffffffffffffffffffffffffffff1673ffffffffffffffffffffffffffffffffffffffff16815260200190815260200160002060008282540192505081905550816002600083815260200190815260200160002060006101000a81548173ffffffffffffffffffffffffffffffffffffffff021916908373ffffffffffffffffffffffffffffffffffffffff160217905550808273ffffffffffffffffffffffffffffffffffffffff16600073ffffffffffffffffffffffffffffffffffffffff167fddf252ad1be2c89b69c2b068fc378daa952ba7f163c4a11628f55a4df523b3ef60405160405180910390a4611fed6000838360016117d7565b5050565b600181111561211157600073ffffffffffffffffffffffffffffffffffffffff168473ffffffffffffffffffffffffffffffffffffffff16146120855780600360008673ffffffffffffffffffffffffffffffffffffffff1673ffffffffffffffffffffffffffffffffffffffff168152602001908152602001600020600082825461207d9190613ad6565b925050819055505b600073ffffffffffffffffffffffffffffffffffffffff168373ffffffffffffffffffffffffffffffffffffffff16146121105780600360008573ffffffffffffffffffffffffffffffffffffffff1673ffffffffffffffffffffffffffffffffffffffff1681526020019081526020016000206000828254612108919061327a565b925050819055505b5b50505050565b6008805490506009600083815260200190815260200160002081905550600881908060018154018082558091505060019003906000526020600020016000909190919091505550565b6000600161216d84610823565b6121779190613ad6565b905060006007600084815260200190815260200160002054905081811461225c576000600660008673ffffffffffffffffffffffffffffffffffffffff1673ffffffffffffffffffffffffffffffffffffffff168152602001908152602001600020600084815260200190815260200160002054905080600660008773ffffffffffffffffffffffffffffffffffffffff1673ffffffffffffffffffffffffffffffffffffffff168152602001908152602001600020600084815260200190815260200160002081905550816007600083815260200190815260200160002081905550505b6007600084815260200190815260200160002060009055600660008573ffffffffffffffffffffffffffffffffffffffff1673ffffffffffffffffffffffffffffffffffffffff16815260200190815260200160002060008381526020019081526020016000206000905550505050565b600060016008805490506122e19190613ad6565b905060006009600084815260200190815260200160002054905060006008838154811061231157612310612e9d565b5b90600052602060002001549050806008838154811061233357612332612e9d565b5b90600052602060002001819055508160096000838152602001908152602001600020819055506009600085815260200190815260200160002060009055600880548061238257612381613b0a565b5b6001900381819060005260206000200160009055905550505050565b60006123a983610823565b905081600660008573ffffffffffffffffffffffffffffffffffffffff1673ffffffffffffffffffffffffffffffffffffffff168152602001908152602001600020600083815260200190815260200160002081905550806007600084815260200190815260200160002081905550505050565b6000807f7fffffffffffffffffffffffffffffff5d576e7357a4501ddfe92f46681b20a08360001c11156124585760006003915091506124f7565b60006001878787876040516000815260200160405260405161247d9493929190613b64565b6020604051602081039080840390855afa15801561249f573d6000803e3d6000fd5b505050602060405103519050600073ffffffffffffffffffffffffffffffffffffffff168173ffffffffffffffffffffffffffffffffffffffff1614156124ee576000600192509250506124f7565b80600092509250505b94509492505050565b6000604051905090565b600080fd5b600080fd5b60007fffffffff0000000000000000000000000000000000000000000000000000000082169050919050565b61254981612514565b811461255457600080fd5b50565b60008135905061256681612540565b92915050565b6000602082840312156125825761258161250a565b5b600061259084828501612557565b91505092915050565b60008115159050919050565b6125ae81612599565b82525050565b60006020820190506125c960008301846125a5565b92915050565b600081519050919050565b600082825260208201905092915050565b60005b838110156126095780820151818401526020810190506125ee565b83811115612618576000848401525b50505050565b6000601f19601f8301169050919050565b600061263a826125cf565b61264481856125da565b93506126548185602086016125eb565b61265d8161261e565b840191505092915050565b60006020820190508181036000830152612682818461262f565b905092915050565b6000819050919050565b61269d8161268a565b81146126a857600080fd5b50565b6000813590506126ba81612694565b92915050565b6000602082840312156126d6576126d561250a565b5b60006126e4848285016126ab565b91505092915050565b600073ffffffffffffffffffffffffffffffffffffffff82169050919050565b6000612718826126ed565b9050919050565b6127288161270d565b82525050565b6000602082019050612743600083018461271f565b92915050565b6127528161270d565b811461275d57600080fd5b50565b60008135905061276f81612749565b92915050565b6000806040838503121561278c5761278b61250a565b5b600061279a85828601612760565b92505060206127ab858286016126ab565b9150509250929050565b6127be8161268a565b82525050565b60006020820190506127d960008301846127b5565b92915050565b6000806000606084860312156127f8576127f761250a565b5b600061280686828701612760565b935050602061281786828701612760565b9250506040612828868287016126ab565b9150509250925092565b6000602082840312156128485761284761250a565b5b600061285684828501612760565b91505092915050565b61286881612599565b811461287357600080fd5b50565b6000813590506128858161285f565b92915050565b600080604083850312156128a2576128a161250a565b5b60006128b085828601612760565b92505060206128c185828601612876565b9150509250929050565b600080fd5b600080fd5b7f4e487b7100000000000000000000000000000000000000000000000000000000600052604160045260246000fd5b61290d8261261e565b810181811067ffffffffffffffff8211171561292c5761292b6128d5565b5b80604052505050565b600061293f612500565b905061294b8282612904565b919050565b600067ffffffffffffffff82111561296b5761296a6128d5565b5b6129748261261e565b9050602081019050919050565b82818337600083830152505050565b60006129a361299e84612950565b612935565b9050828152602081018484840111156129bf576129be6128d0565b5b6129ca848285612981565b509392505050565b600082601f8301126129e7576129e66128cb565b5b81356129f7848260208601612990565b91505092915050565b60008060008060808587031215612a1a57612a1961250a565b5b6000612a2887828801612760565b9450506020612a3987828801612760565b9350506040612a4a878288016126ab565b925050606085013567ffffffffffffffff811115612a6b57612a6a61250f565b5b612a77878288016129d2565b91505092959194509250565b60008060408385031215612a9a57612a9961250a565b5b6000612aa885828601612760565b9250506020612ab985828601612760565b9150509250929050565b60008060008060808587031215612add57612adc61250a565b5b6000612aeb87828801612760565b9450506020612afc87828801612760565b935050604085013567ffffffffffffffff811115612b1d57612b1c61250f565b5b612b29878288016129d2565b925050606085013567ffffffffffffffff811115612b4a57612b4961250f565b5b612b56878288016129d2565b91505092959194509250565b7f4e487b7100000000000000000000000000000000000000000000000000000000600052602260045260246000fd5b60006002820490506001821680612ba957607f821691505b60208210811415612bbd57612bbc612b62565b5b50919050565b7f4552433732313a20617070726f76616c20746f2063757272656e74206f776e6560008201527f7200000000000000000000000000000000000000000000000000000000000000602082015250565b6000612c1f6021836125da565b9150612c2a82612bc3565b604082019050919050565b60006020820190508181036000830152612c4e81612c12565b9050919050565b7f4552433732313a20617070726f76652063616c6c6572206973206e6f7420746f60008201527f6b656e206f776e6572206f7220617070726f76656420666f7220616c6c000000602082015250565b6000612cb1603d836125da565b9150612cbc82612c55565b604082019050919050565b60006020820190508181036000830152612ce081612ca4565b9050919050565b7f4552433732313a2063616c6c6572206973206e6f7420746f6b656e206f776e6560008201527f72206f7220617070726f76656400000000000000000000000000000000000000602082015250565b6000612d43602d836125da565b9150612d4e82612ce7565b604082019050919050565b60006020820190508181036000830152612d7281612d36565b9050919050565b7f455243373231456e756d657261626c653a206f776e657220696e646578206f7560008201527f74206f6620626f756e6473000000000000000000000000000000000000000000602082015250565b6000612dd5602b836125da565b9150612de082612d79565b604082019050919050565b60006020820190508181036000830152612e0481612dc8565b9050919050565b7f455243373231456e756d657261626c653a20676c6f62616c20696e646578206f60008201527f7574206f6620626f756e64730000000000000000000000000000000000000000602082015250565b6000612e67602c836125da565b9150612e7282612e0b565b604082019050919050565b60006020820190508181036000830152612e9681612e5a565b9050919050565b7f4e487b7100000000000000000000000000000000000000000000000000000000600052603260045260246000fd5b7f4552433732313a20696e76616c696420746f6b656e2049440000000000000000600082015250565b6000612f026018836125da565b9150612f0d82612ecc565b602082019050919050565b60006020820190508181036000830152612f3181612ef5565b9050919050565b7f4552433732313a2061646472657373207a65726f206973206e6f74206120766160008201527f6c6964206f776e65720000000000000000000000000000000000000000000000602082015250565b6000612f946029836125da565b9150612f9f82612f38565b604082019050919050565b60006020820190508181036000830152612fc381612f87565b9050919050565b600081905092915050565b6000612fe0826125cf565b612fea8185612fca565b9350612ffa8185602086016125eb565b80840191505092915050565b6000819050919050565b61302161301c8261268a565b613006565b82525050565b60006130338285612fd5565b915061303f8284613010565b6020820191508190509392505050565b7f45524337323152494e473a204120616c726561647920686173206120746f6b6560008201527f6e00000000000000000000000000000000000000000000000000000000000000602082015250565b60006130ab6021836125da565b91506130b68261304f565b604082019050919050565b600060208201905081810360008301526130da8161309e565b9050919050565b7f45524337323152494e473a204220616c726561647920686173206120746f6b6560008201527f6e00000000000000000000000000000000000000000000000000000000000000602082015250565b600061313d6021836125da565b9150613148826130e1565b604082019050919050565b6000602082019050818103600083015261316c81613130565b9050919050565b7f696e76616c6964207369676e61747572652066726f6d20410000000000000000600082015250565b60006131a96018836125da565b91506131b482613173565b602082019050919050565b600060208201905081810360008301526131d88161319c565b9050919050565b7f696e76616c6964207369676e61747572652066726f6d20420000000000000000600082015250565b60006132156018836125da565b9150613220826131df565b602082019050919050565b6000602082019050818103600083015261324481613208565b9050919050565b7f4e487b7100000000000000000000000000000000000000000000000000000000600052601160045260246000fd5b60006132858261268a565b91506132908361268a565b9250827fffffffffffffffffffffffffffffffffffffffffffffffffffffffffffffffff038211156132c5576132c461324b565b5b828201905092915050565b7f4f776e61626c653a206e6577206f776e657220697320746865207a65726f206160008201527f6464726573730000000000000000000000000000000000000000000000000000602082015250565b600061332c6026836125da565b9150613337826132d0565b604082019050919050565b6000602082019050818103600083015261335b8161331f565b9050919050565b7f4552433732313a207472616e736665722066726f6d20696e636f72726563742060008201527f6f776e6572000000000000000000000000000000000000000000000000000000602082015250565b60006133be6025836125da565b91506133c982613362565b604082019050919050565b600060208201905081810360008301526133ed816133b1565b9050919050565b7f4552433732313a207472616e7366657220746f20746865207a65726f2061646460008201527f7265737300000000000000000000000000000000000000000000000000000000602082015250565b60006134506024836125da565b915061345b826133f4565b604082019050919050565b6000602082019050818103600083015261347f81613443565b9050919050565b7f4f776e61626c653a2063616c6c6572206973206e6f7420746865206f776e6572600082015250565b60006134bc6020836125da565b91506134c782613486565b602082019050919050565b600060208201905081810360008301526134eb816134af565b9050919050565b7f4552433732313a20617070726f766520746f2063616c6c657200000000000000600082015250565b60006135286019836125da565b9150613533826134f2565b602082019050919050565b600060208201905081810360008301526135578161351b565b9050919050565b7f4552433732313a207472616e7366657220746f206e6f6e20455243373231526560008201527f63656976657220696d706c656d656e7465720000000000000000000000000000602082015250565b60006135ba6032836125da565b91506135c58261355e565b604082019050919050565b600060208201905081810360008301526135e9816135ad565b9050919050565b60008160601b9050919050565b6000613608826135f0565b9050919050565b600061361a826135fd565b9050919050565b61363261362d8261270d565b61360f565b82525050565b60006136448284613621565b60148201915081905092915050565b600081519050919050565b600082825260208201905092915050565b600061367a82613653565b613684818561365e565b93506136948185602086016125eb565b61369d8161261e565b840191505092915050565b60006080820190506136bd600083018761271f565b6136ca602083018661271f565b6136d760408301856127b5565b81810360608301526136e9818461366f565b905095945050505050565b60008151905061370381612540565b92915050565b60006020828403121561371f5761371e61250a565b5b600061372d848285016136f4565b91505092915050565b7f19457468657265756d205369676e6564204d6573736167653a0a333200000000600082015250565b600061376c601c83612fca565b915061377782613736565b601c82019050919050565b6000819050919050565b6000819050919050565b6137a76137a282613782565b61378c565b82525050565b60006137b88261375f565b91506137c48284613796565b60208201915081905092915050565b7f455243373231456e756d657261626c653a20636f6e736563757469766520747260008201527f616e7366657273206e6f7420737570706f727465640000000000000000000000602082015250565b600061382f6035836125da565b915061383a826137d3565b604082019050919050565b6000602082019050818103600083015261385e81613822565b9050919050565b7f4e487b7100000000000000000000000000000000000000000000000000000000600052602160045260246000fd5b7f45434453413a20696e76616c6964207369676e61747572650000000000000000600082015250565b60006138ca6018836125da565b91506138d582613894565b602082019050919050565b600060208201905081810360008301526138f9816138bd565b9050919050565b7f45434453413a20696e76616c6964207369676e6174757265206c656e67746800600082015250565b6000613936601f836125da565b915061394182613900565b602082019050919050565b6000602082019050818103600083015261396581613929565b9050919050565b7f45434453413a20696e76616c6964207369676e6174757265202773272076616c60008201527f7565000000000000000000000000000000000000000000000000000000000000602082015250565b60006139c86022836125da565b91506139d38261396c565b604082019050919050565b600060208201905081810360008301526139f7816139bb565b9050919050565b7f4552433732313a206d696e7420746f20746865207a65726f2061646472657373600082015250565b6000613a346020836125da565b9150613a3f826139fe565b602082019050919050565b60006020820190508181036000830152613a6381613a27565b9050919050565b7f4552433732313a20746f6b656e20616c7265616479206d696e74656400000000600082015250565b6000613aa0601c836125da565b9150613aab82613a6a565b602082019050919050565b60006020820190508181036000830152613acf81613a93565b9050919050565b6000613ae18261268a565b9150613aec8361268a565b925082821015613aff57613afe61324b565b5b828203905092915050565b7f4e487b7100000000000000000000000000000000000000000000000000000000600052603160045260246000fd5b613b4281613782565b82525050565b600060ff82169050919050565b613b5e81613b48565b82525050565b6000608082019050613b796000830187613b39565b613b866020830186613b55565b613b936040830185613b39565b613ba06060830184613b39565b9594505050505056fea2646970667358221220a0eafc293e3a3221e6defc77f70cd0e3d31c77df5236272d3d68d216f9a518ba64736f6c63430008090033",
  "linkReferences": {},
  "deployedLinkReferences": {}
}